{
    "contractName": "MockPriceOracle",
    "abi": [
        {
            "inputs": [
                {
                    "internalType": "address",
                    "name": "originalPriceOracle",
                    "type": "address"
                }
            ],
            "stateMutability": "nonpayable",
            "type": "constructor"
        },
        {
            "anonymous": false,
            "inputs": [
                {
                    "indexed": false,
                    "internalType": "address",
                    "name": "_asset",
                    "type": "address"
                },
                {
                    "indexed": false,
                    "internalType": "uint256",
                    "name": "_price",
                    "type": "uint256"
                },
                {
                    "indexed": false,
                    "internalType": "uint256",
                    "name": "timestamp",
                    "type": "uint256"
                }
            ],
            "name": "AssetPriceUpdated",
            "type": "event"
        },
        {
            "anonymous": false,
            "inputs": [
                {
                    "indexed": false,
                    "internalType": "uint256",
                    "name": "_price",
                    "type": "uint256"
                },
                {
                    "indexed": false,
                    "internalType": "uint256",
                    "name": "timestamp",
                    "type": "uint256"
                }
            ],
            "name": "EthPriceUpdated",
            "type": "event"
        },
        {
            "inputs": [
                {
                    "internalType": "address",
                    "name": "_asset",
                    "type": "address"
                }
            ],
            "name": "getAssetPrice",
            "outputs": [
                {
                    "internalType": "uint256",
                    "name": "",
                    "type": "uint256"
                }
            ],
            "stateMutability": "view",
            "type": "function"
        },
        {
            "inputs": [
                {
                    "internalType": "address",
                    "name": "_asset",
                    "type": "address"
                },
                {
                    "internalType": "uint256",
                    "name": "_price",
                    "type": "uint256"
                }
            ],
            "name": "setAssetPrice",
            "outputs": [],
            "stateMutability": "nonpayable",
            "type": "function"
        }
    ],
    "bytecode": "608060405234801561001057600080fd5b506040516102bd3803806102bd83398101604081905261002f91610054565b600080546001600160a01b0319166001600160a01b0392909216919091179055610084565b60006020828403121561006657600080fd5b81516001600160a01b038116811461007d57600080fd5b9392505050565b61022a806100936000396000f3fe608060405234801561001057600080fd5b50600436106100365760003560e01c806351323f721461003b578063b3596f0714610050575b600080fd5b61004e6100493660046101b1565b610075565b005b61006361005e366004610196565b6100d2565b60405190815260200160405180910390f35b6001600160a01b038216600081815260016020908152604091829020849055815192835282018390524282820152517fce6e0b57367bae95ca7198e1172f653ea64a645c16ab586b4cefa9237bfc2d929181900360600190a15050565b6001600160a01b038116600090815260016020526040812054806101745760005460405163b3596f0760e01b81526001600160a01b0385811660048301529091169063b3596f079060240160206040518083038186803b15801561013557600080fd5b505afa158015610149573d6000803e3d6000fd5b505050506040513d601f19601f8201168201806040525081019061016d91906101db565b9392505050565b92915050565b80356001600160a01b038116811461019157600080fd5b919050565b6000602082840312156101a857600080fd5b61016d8261017a565b600080604083850312156101c457600080fd5b6101cd8361017a565b946020939093013593505050565b6000602082840312156101ed57600080fd5b505191905056fea26469706673582212208a815c0189ca336e9f5ce28599ff7f7298b28096e1a6662d7c745bf3755de84964736f6c63430008070033",
    "sourcePath": "c:/Users/mprokazin/source/red-duck/levrly/smart-contracts/levrly/tests/TestContracts/MockPriceOracle.sol",
    "compiler": {
        "name": "solc",
        "version": "0.8.7+commit.e28d00a7"
    },
    "functionHashes": {
        "getAssetPrice(address)": "b3596f07",
        "setAssetPrice(address,uint256)": "51323f72"
    },
    "gasEstimates": {
        "creation": {
            "codeDepositCost": "110800",
            "executionCost": "infinite",
            "totalCost": "infinite"
        },
        "external": {
            "getAssetPrice(address)": "infinite",
            "setAssetPrice(address,uint256)": "24114"
        }
    }
}